{
  "contractName": "SmartCityToken",
  "abi": [
    {
      "constant": true,
      "inputs": [],
      "name": "unlockOwnerDate",
      "outputs": [
        {
          "name": "",
          "type": "uint256"
        }
      ],
      "payable": false,
      "stateMutability": "view",
      "type": "function"
    },
    {
      "constant": true,
      "inputs": [],
      "name": "name",
      "outputs": [
        {
          "name": "",
          "type": "string"
        }
      ],
      "payable": false,
      "stateMutability": "view",
      "type": "function"
    },
    {
      "constant": true,
      "inputs": [],
      "name": "totalSupply",
      "outputs": [
        {
          "name": "",
          "type": "uint256"
        }
      ],
      "payable": false,
      "stateMutability": "view",
      "type": "function"
    },
    {
      "constant": true,
      "inputs": [
        {
          "name": "",
          "type": "address"
        }
      ],
      "name": "balances",
      "outputs": [
        {
          "name": "",
          "type": "uint256"
        }
      ],
      "payable": false,
      "stateMutability": "view",
      "type": "function"
    },
    {
      "constant": true,
      "inputs": [],
      "name": "decimals",
      "outputs": [
        {
          "name": "",
          "type": "uint256"
        }
      ],
      "payable": false,
      "stateMutability": "view",
      "type": "function"
    },
    {
      "constant": true,
      "inputs": [
        {
          "name": "",
          "type": "address"
        },
        {
          "name": "",
          "type": "address"
        }
      ],
      "name": "allowances",
      "outputs": [
        {
          "name": "",
          "type": "uint256"
        }
      ],
      "payable": false,
      "stateMutability": "view",
      "type": "function"
    },
    {
      "constant": true,
      "inputs": [],
      "name": "standard",
      "outputs": [
        {
          "name": "",
          "type": "string"
        }
      ],
      "payable": false,
      "stateMutability": "view",
      "type": "function"
    },
    {
      "constant": true,
      "inputs": [],
      "name": "amountLocked",
      "outputs": [
        {
          "name": "",
          "type": "uint256"
        }
      ],
      "payable": false,
      "stateMutability": "view",
      "type": "function"
    },
    {
      "constant": true,
      "inputs": [],
      "name": "burned",
      "outputs": [
        {
          "name": "",
          "type": "bool"
        }
      ],
      "payable": false,
      "stateMutability": "view",
      "type": "function"
    },
    {
      "constant": true,
      "inputs": [],
      "name": "startTime",
      "outputs": [
        {
          "name": "",
          "type": "uint256"
        }
      ],
      "payable": false,
      "stateMutability": "view",
      "type": "function"
    },
    {
      "constant": true,
      "inputs": [],
      "name": "amountForSale",
      "outputs": [
        {
          "name": "",
          "type": "uint256"
        }
      ],
      "payable": false,
      "stateMutability": "view",
      "type": "function"
    },
    {
      "constant": true,
      "inputs": [],
      "name": "owner",
      "outputs": [
        {
          "name": "",
          "type": "address"
        }
      ],
      "payable": false,
      "stateMutability": "view",
      "type": "function"
    },
    {
      "constant": true,
      "inputs": [],
      "name": "symbol",
      "outputs": [
        {
          "name": "",
          "type": "string"
        }
      ],
      "payable": false,
      "stateMutability": "view",
      "type": "function"
    },
    {
      "constant": true,
      "inputs": [],
      "name": "crowdsale",
      "outputs": [
        {
          "name": "",
          "type": "address"
        }
      ],
      "payable": false,
      "stateMutability": "view",
      "type": "function"
    },
    {
      "constant": true,
      "inputs": [],
      "name": "amountReserved",
      "outputs": [
        {
          "name": "",
          "type": "uint256"
        }
      ],
      "payable": false,
      "stateMutability": "view",
      "type": "function"
    },
    {
      "inputs": [
        {
          "name": "_ownerAddress",
          "type": "address"
        },
        {
          "name": "_startTime",
          "type": "uint256"
        }
      ],
      "payable": false,
      "stateMutability": "nonpayable",
      "type": "constructor"
    },
    {
      "anonymous": false,
      "inputs": [
        {
          "indexed": true,
          "name": "from",
          "type": "address"
        },
        {
          "indexed": true,
          "name": "to",
          "type": "address"
        },
        {
          "indexed": false,
          "name": "value",
          "type": "uint256"
        }
      ],
      "name": "Transfer",
      "type": "event"
    },
    {
      "anonymous": false,
      "inputs": [
        {
          "indexed": true,
          "name": "_owner",
          "type": "address"
        },
        {
          "indexed": true,
          "name": "spender",
          "type": "address"
        },
        {
          "indexed": false,
          "name": "value",
          "type": "uint256"
        }
      ],
      "name": "Approval",
      "type": "event"
    },
    {
      "anonymous": false,
      "inputs": [
        {
          "indexed": false,
          "name": "amount",
          "type": "uint256"
        }
      ],
      "name": "Burned",
      "type": "event"
    },
    {
      "constant": false,
      "inputs": [
        {
          "name": "_to",
          "type": "address"
        },
        {
          "name": "_value",
          "type": "uint256"
        }
      ],
      "name": "transfer",
      "outputs": [
        {
          "name": "success",
          "type": "bool"
        }
      ],
      "payable": false,
      "stateMutability": "nonpayable",
      "type": "function"
    },
    {
      "constant": false,
      "inputs": [
        {
          "name": "_from",
          "type": "address"
        },
        {
          "name": "_to",
          "type": "address"
        },
        {
          "name": "_value",
          "type": "uint256"
        }
      ],
      "name": "transferFrom",
      "outputs": [
        {
          "name": "success",
          "type": "bool"
        }
      ],
      "payable": false,
      "stateMutability": "nonpayable",
      "type": "function"
    },
    {
      "constant": true,
      "inputs": [
        {
          "name": "_addr",
          "type": "address"
        }
      ],
      "name": "balanceOf",
      "outputs": [
        {
          "name": "balance",
          "type": "uint256"
        }
      ],
      "payable": false,
      "stateMutability": "view",
      "type": "function"
    },
    {
      "constant": false,
      "inputs": [
        {
          "name": "_spender",
          "type": "address"
        },
        {
          "name": "_value",
          "type": "uint256"
        }
      ],
      "name": "approve",
      "outputs": [
        {
          "name": "success",
          "type": "bool"
        }
      ],
      "payable": false,
      "stateMutability": "nonpayable",
      "type": "function"
    },
    {
      "constant": false,
      "inputs": [],
      "name": "burn",
      "outputs": [],
      "payable": false,
      "stateMutability": "nonpayable",
      "type": "function"
    },
    {
      "constant": false,
      "inputs": [
        {
          "name": "_crowdsaleAddress",
          "type": "address"
        }
      ],
      "name": "setCrowdsale",
      "outputs": [],
      "payable": false,
      "stateMutability": "nonpayable",
      "type": "function"
    }
  ],
  "bytecode": "0x606060405265e5fa3f489b6c600255341561001957600080fd5b60405160408061162e83398101604052808051906020019091908051906020019091905050816000806101000a81548173ffffffffffffffffffffffffffffffffffffffff021916908373ffffffffffffffffffffffffffffffffffffffff160217905550806003819055506303c2670060035401600481905550600254600560008060009054906101000a900473ffffffffffffffffffffffffffffffffffffffff1673ffffffffffffffffffffffffffffffffffffffff1673ffffffffffffffffffffffffffffffffffffffff1681526020019081526020016000208190555050506115228061010c6000396000f30060606040526004361061011d576000357c0100000000000000000000000000000000000000000000000000000000900463ffffffff1680630204d0f81461012257806306fdde031461014b578063095ea7b3146101d957806318160ddd1461023357806323b872dd1461025c57806327e235e3146102d5578063313ce5671461032257806344df8e701461034b578063483a20b21461036057806355b6ed5c146103995780635a3b7e42146104055780636c6c7e051461049357806370a08231146104bc57806373f425611461050957806378e97925146105365780638473e55f1461055f5780638da5cb5b1461058857806395d89b41146105dd5780639c1e03a01461066b578063a9059cbb146106c0578063ea0d8da41461071a575b600080fd5b341561012d57600080fd5b610135610743565b6040518082815260200191505060405180910390f35b341561015657600080fd5b61015e610749565b6040518080602001828103825283818151815260200191508051906020019080838360005b8381101561019e578082015181840152602081019050610183565b50505050905090810190601f1680156101cb5780820380516001836020036101000a031916815260200191505b509250505060405180910390f35b34156101e457600080fd5b610219600480803573ffffffffffffffffffffffffffffffffffffffff16906020019091908035906020019091905050610782565b604051808215151515815260200191505060405180910390f35b341561023e57600080fd5b6102466107ac565b6040518082815260200191505060405180910390f35b341561026757600080fd5b6102bb600480803573ffffffffffffffffffffffffffffffffffffffff1690602001909190803573ffffffffffffffffffffffffffffffffffffffff169060200190919080359060200190919050506107b2565b604051808215151515815260200191505060405180910390f35b34156102e057600080fd5b61030c600480803573ffffffffffffffffffffffffffffffffffffffff16906020019091905050610c57565b6040518082815260200191505060405180910390f35b341561032d57600080fd5b610335610c6f565b6040518082815260200191505060405180910390f35b341561035657600080fd5b61035e610c74565b005b341561036b57600080fd5b610397600480803573ffffffffffffffffffffffffffffffffffffffff16906020019091905050610df0565b005b34156103a457600080fd5b6103ef600480803573ffffffffffffffffffffffffffffffffffffffff1690602001909190803573ffffffffffffffffffffffffffffffffffffffff16906020019091905050610f26565b6040518082815260200191505060405180910390f35b341561041057600080fd5b610418610f4b565b6040518080602001828103825283818151815260200191508051906020019080838360005b8381101561045857808201518184015260208101905061043d565b50505050905090810190601f1680156104855780820380516001836020036101000a031916815260200191505b509250505060405180910390f35b341561049e57600080fd5b6104a6610f84565b6040518082815260200191505060405180910390f35b34156104c757600080fd5b6104f3600480803573ffffffffffffffffffffffffffffffffffffffff16906020019091905050610f8e565b6040518082815260200191505060405180910390f35b341561051457600080fd5b61051c610fd7565b604051808215151515815260200191505060405180910390f35b341561054157600080fd5b610549610fea565b6040518082815260200191505060405180910390f35b341561056a57600080fd5b610572610ff0565b6040518082815260200191505060405180910390f35b341561059357600080fd5b61059b610ffa565b604051808273ffffffffffffffffffffffffffffffffffffffff1673ffffffffffffffffffffffffffffffffffffffff16815260200191505060405180910390f35b34156105e857600080fd5b6105f061101f565b6040518080602001828103825283818151815260200191508051906020019080838360005b83811015610630578082015181840152602081019050610615565b50505050905090810190601f16801561065d5780820380516001836020036101000a031916815260200191505b509250505060405180910390f35b341561067657600080fd5b61067e611058565b604051808273ffffffffffffffffffffffffffffffffffffffff1673ffffffffffffffffffffffffffffffffffffffff16815260200191505060405180910390f35b34156106cb57600080fd5b610700600480803573ffffffffffffffffffffffffffffffffffffffff1690602001909190803590602001909190505061107e565b604051808215151515815260200191505060405180910390f35b341561072557600080fd5b61072d61132e565b6040518082815260200191505060405180910390f35b60045481565b6040805190810160405280600a81526020017f536d61727420436974790000000000000000000000000000000000000000000081525081565b600060406004810160003690501015151561079957fe5b6107a38484611338565b91505092915050565b60025481565b6000806060600481016000369050101515156107ca57fe5b600073ffffffffffffffffffffffffffffffffffffffff168573ffffffffffffffffffffffffffffffffffffffff161415151561080657600080fd5b600560008773ffffffffffffffffffffffffffffffffffffffff1673ffffffffffffffffffffffffffffffffffffffff16815260200190815260200160002054841115151561085457600080fd5b600660008773ffffffffffffffffffffffffffffffffffffffff1673ffffffffffffffffffffffffffffffffffffffff16815260200190815260200160002060003373ffffffffffffffffffffffffffffffffffffffff1673ffffffffffffffffffffffffffffffffffffffff1681526020019081526020016000205484111515156108df57600080fd5b600354421015610945576000809054906101000a900473ffffffffffffffffffffffffffffffffffffffff1673ffffffffffffffffffffffffffffffffffffffff168673ffffffffffffffffffffffffffffffffffffffff1614151561094457600080fd5b5b6000809054906101000a900473ffffffffffffffffffffffffffffffffffffffff1673ffffffffffffffffffffffffffffffffffffffff168673ffffffffffffffffffffffffffffffffffffffff161480156109a2575060045442105b15610a0e5765385830c8d428610a0085600560008a73ffffffffffffffffffffffffffffffffffffffff1673ffffffffffffffffffffffffffffffffffffffff168152602001908152602001600020546114bf90919063ffffffff16565b10151515610a0d57600080fd5b5b600660008773ffffffffffffffffffffffffffffffffffffffff1673ffffffffffffffffffffffffffffffffffffffff16815260200190815260200160002060003373ffffffffffffffffffffffffffffffffffffffff1673ffffffffffffffffffffffffffffffffffffffff168152602001908152602001600020549150610adf84600560008973ffffffffffffffffffffffffffffffffffffffff1673ffffffffffffffffffffffffffffffffffffffff168152602001908152602001600020546114bf90919063ffffffff16565b600560008873ffffffffffffffffffffffffffffffffffffffff1673ffffffffffffffffffffffffffffffffffffffff16815260200190815260200160002081905550610b7484600560008873ffffffffffffffffffffffffffffffffffffffff1673ffffffffffffffffffffffffffffffffffffffff168152602001908152602001600020546114d890919063ffffffff16565b600560008773ffffffffffffffffffffffffffffffffffffffff1673ffffffffffffffffffffffffffffffffffffffff16815260200190815260200160002081905550610bca84836114bf90919063ffffffff16565b600660008873ffffffffffffffffffffffffffffffffffffffff1673ffffffffffffffffffffffffffffffffffffffff16815260200190815260200160002060003373ffffffffffffffffffffffffffffffffffffffff1673ffffffffffffffffffffffffffffffffffffffff168152602001908152602001600020819055506001925050509392505050565b60056020528060005260406000206000915090505481565b600581565b6000600760009054906101000a900460ff16158015610c94575060035442115b15610ded57610d1265507dfc8c9ccc600560008060009054906101000a900473ffffffffffffffffffffffffffffffffffffffff1673ffffffffffffffffffffffffffffffffffffffff1673ffffffffffffffffffffffffffffffffffffffff168152602001908152602001600020546114bf90919063ffffffff16565b905065507dfc8c9ccc600560008060009054906101000a900473ffffffffffffffffffffffffffffffffffffffff1673ffffffffffffffffffffffffffffffffffffffff1673ffffffffffffffffffffffffffffffffffffffff16815260200190815260200160002081905550610d94816002546114bf90919063ffffffff16565b6002819055506001600760006101000a81548160ff0219169083151502179055507fd83c63197e8e676d80ab0122beba9a9d20f3828839e9a1d6fe81d242e9cd7e6e816040518082815260200191505060405180910390a15b50565b6000809054906101000a900473ffffffffffffffffffffffffffffffffffffffff1673ffffffffffffffffffffffffffffffffffffffff163373ffffffffffffffffffffffffffffffffffffffff16141515610e4b57600080fd5b600073ffffffffffffffffffffffffffffffffffffffff16600160009054906101000a900473ffffffffffffffffffffffffffffffffffffffff1673ffffffffffffffffffffffffffffffffffffffff16141515610ea857600080fd5b80600160006101000a81548173ffffffffffffffffffffffffffffffffffffffff021916908373ffffffffffffffffffffffffffffffffffffffff160217905550610f1b600160009054906101000a900473ffffffffffffffffffffffffffffffffffffffff1665957c42bbfea0611338565b1515610f2357fe5b50565b6006602052816000526040600020602052806000526040600020600091509150505481565b6040805190810160405280600581526020017f455243323000000000000000000000000000000000000000000000000000000081525081565b65385830c8d42881565b6000600560008373ffffffffffffffffffffffffffffffffffffffff1673ffffffffffffffffffffffffffffffffffffffff168152602001908152602001600020549050919050565b600760009054906101000a900460ff1681565b60035481565b65957c42bbfea081565b6000809054906101000a900473ffffffffffffffffffffffffffffffffffffffff1681565b6040805190810160405280600481526020017f434954590000000000000000000000000000000000000000000000000000000081525081565b600160009054906101000a900473ffffffffffffffffffffffffffffffffffffffff1681565b600060406004810160003690501015151561109557fe5b60035442101515156110a657600080fd5b600073ffffffffffffffffffffffffffffffffffffffff168473ffffffffffffffffffffffffffffffffffffffff16141515156110e257600080fd5b600560003373ffffffffffffffffffffffffffffffffffffffff1673ffffffffffffffffffffffffffffffffffffffff16815260200190815260200160002054831115151561113057600080fd5b6000809054906101000a900473ffffffffffffffffffffffffffffffffffffffff1673ffffffffffffffffffffffffffffffffffffffff163373ffffffffffffffffffffffffffffffffffffffff1614801561118d575060045442105b156111f95765385830c8d4286111eb84600560003373ffffffffffffffffffffffffffffffffffffffff1673ffffffffffffffffffffffffffffffffffffffff168152602001908152602001600020546114bf90919063ffffffff16565b101515156111f857600080fd5b5b61124b83600560003373ffffffffffffffffffffffffffffffffffffffff1673ffffffffffffffffffffffffffffffffffffffff168152602001908152602001600020546114bf90919063ffffffff16565b600560003373ffffffffffffffffffffffffffffffffffffffff1673ffffffffffffffffffffffffffffffffffffffff168152602001908152602001600020819055506112e083600560008773ffffffffffffffffffffffffffffffffffffffff1673ffffffffffffffffffffffffffffffffffffffff168152602001908152602001600020546114d890919063ffffffff16565b600560008673ffffffffffffffffffffffffffffffffffffffff1673ffffffffffffffffffffffffffffffffffffffff16815260200190815260200160002081905550600191505092915050565b65507dfc8c9ccc81565b6000808214806113c457506000600660003373ffffffffffffffffffffffffffffffffffffffff1673ffffffffffffffffffffffffffffffffffffffff16815260200190815260200160002060008573ffffffffffffffffffffffffffffffffffffffff1673ffffffffffffffffffffffffffffffffffffffff16815260200190815260200160002054145b15156113cf57600080fd5b81600660003373ffffffffffffffffffffffffffffffffffffffff1673ffffffffffffffffffffffffffffffffffffffff16815260200190815260200160002060008573ffffffffffffffffffffffffffffffffffffffff1673ffffffffffffffffffffffffffffffffffffffff168152602001908152602001600020819055508273ffffffffffffffffffffffffffffffffffffffff163373ffffffffffffffffffffffffffffffffffffffff167f8c5be1e5ebec7d5bd14f71427d1e84f3dd0314c0f7b2291e5b200ac8c7c3b925846040518082815260200191505060405180910390a36001905092915050565b60008282111515156114cd57fe5b818303905092915050565b60008082840190508381101515156114ec57fe5b80915050929150505600a165627a7a723058201ac9ae7aa34053183c805efb0702a585c088a75fca2baae40a4750f7793c91660029",
  "source": "pragma solidity ^0.4.18;\r\n\r\n/**\r\n *  @title Smart City Token http://www.smartcitycoin.io\r\n *  @dev ERC20 standard compliant / https://github.com/ethereum/EIPs/issues/20 /\r\n *  @dev Amount not sold during Crowdsale is burned\r\n */\r\n\r\nimport \"./SafeMath.sol\";\r\n\r\ncontract SmartCityToken {\r\n    using SafeMath for uint256;\r\n\r\n    address public owner;  // address of Token Owner\r\n    address public crowdsale; // address of Crowdsale contract\r\n\r\n    string constant public standard = \"ERC20\"; // token standard\r\n    string constant public name = \"Smart City\"; // token name\r\n    string constant public symbol = \"CITY\"; // token symbol\r\n\r\n    uint256 constant public decimals = 5; // 1 CITY = 100000 tokens\r\n    uint256 public totalSupply = 252862966307692; // total token provision\r\n\r\n    uint256 constant public amountForSale = 164360928100000; // amount that might be sold during ICO - 65% of total token supply\r\n    uint256 constant public amountReserved = 88502038207692; // amount reserved for founders / loyalty / bounties / etc. - 35% of total token supply\r\n    uint256 constant public amountLocked = 61951426745384; // the amount of tokens Owner cannot spend within first 2 years after Crowdsale - 70% of the reserved amount\r\n\r\n    uint256 public startTime; // from this time on transfer and transferFrom functions are available to anyone except of token Owner\r\n    uint256 public unlockOwnerDate; // from this time on transfer and transferFrom functions are available to token Owner\r\n\r\n    mapping(address => uint256) public balances; // balances array\r\n    mapping(address => mapping(address => uint256)) public allowances; // allowances array\r\n\r\n    bool public burned; // indicates whether excess tokens have already been burned\r\n\r\n    event Transfer(address indexed from, address indexed to, uint256 value); // Transfer event\r\n    event Approval(address indexed _owner, address indexed spender, uint256 value); // Approval event\r\n    event Burned(uint256 amount); // Burned event\r\n\r\n    modifier onlyPayloadSize(uint size) {\r\n        assert(msg.data.length >= size + 4);\r\n        _;\r\n    }\r\n\r\n    /**\r\n     *  @dev Contract initialization\r\n     *  @param _ownerAddress address Token owner address\r\n     *  @param _startTime uint256 Crowdsale end time\r\n     *\r\n     */\r\n    function SmartCityToken(address _ownerAddress, uint256 _startTime) public {\r\n        owner = _ownerAddress; // token Owner\r\n        startTime = _startTime; // token Start Time\r\n        unlockOwnerDate = startTime + 2 years;\r\n        balances[owner] = totalSupply; // all tokens are initially allocated to token owner\r\n    }\r\n\r\n    /**\r\n     * @dev Transfers token for a specified address\r\n     * @param _to address The address to transfer to\r\n     * @param _value uint256 The amount to be transferred\r\n     */\r\n    function transfer(address _to, uint256 _value) onlyPayloadSize(2 * 32) public returns(bool success) {\r\n        require(now >= startTime);\r\n        require(_to != address(0));\r\n        require(_value <= balances[msg.sender]);\r\n\r\n        if (msg.sender == owner && now < unlockOwnerDate)\r\n            require(balances[msg.sender].sub(_value) >= amountLocked);\r\n\r\n        balances[msg.sender] = balances[msg.sender].sub(_value); // subtract requested amount from the sender address\r\n        balances[_to] = balances[_to].add(_value); // send requested amount to the target address\r\n\r\n        //Transfer(msg.sender, _to, _value); // trigger Transfer event\r\n        return true;\r\n    }\r\n\r\n    /**\r\n     * @dev Transfers tokens from one address to another\r\n     * @param _from address The address which you want to send tokens from\r\n     * @param _to address The address which you want to transfer to\r\n     * @param _value uint256 the amount of tokens to be transferred\r\n     */\r\n    function transferFrom(address _from, address _to, uint256 _value) onlyPayloadSize(3 * 32) public returns(bool success) {\r\n        require(_to != address(0));\r\n        require(_value <= balances[_from]);\r\n        require(_value <= allowances[_from][msg.sender]);\r\n\r\n        if (now < startTime)\r\n            require(_from == owner);\r\n\r\n        if (_from == owner && now < unlockOwnerDate)\r\n            require(balances[_from].sub(_value) >= amountLocked);\r\n\r\n        uint256 _allowance = allowances[_from][msg.sender];\r\n        balances[_from] = balances[_from].sub(_value); // subtract requested amount from the sender address\r\n        balances[_to] = balances[_to].add(_value); // send requested amount to the target address\r\n        allowances[_from][msg.sender] = _allowance.sub(_value); // reduce sender allowance by transferred amount\r\n\r\n        //Transfer(_from, _to, _value); // trigger Transfer event\r\n        return true;\r\n    }\r\n\r\n    /**\r\n     * @dev Gets the balance of the specified address.\r\n     * @param _addr address The address to query the balance of.\r\n     * @return uint256 representing the amount owned by the passed address.\r\n     */\r\n    function balanceOf(address _addr) public view returns (uint256 balance) {\r\n        return balances[_addr];\r\n    }\r\n\r\n    /**\r\n     *  @dev Approve the passed address to spend the specified amount of tokens on behalf of msg.sender.\r\n     *  @param _spender address The address which will spend the funds\r\n     *  @param _value uint256 The amount of tokens to be spent.\r\n     */\r\n    function approve(address _spender, uint256 _value) onlyPayloadSize(2 * 32) public returns(bool success) {\r\n        return _approve(_spender, _value);\r\n    }\r\n\r\n    /**\r\n     *  @dev Workaround for vulnerability described here: https://docs.google.com/document/d/1YLPtQxZu1UAvO9cZ1O2RPXBbT0mooh4DYKjA_jp-RLM\r\n     */\r\n    function _approve(address _spender, uint256 _value) internal returns(bool success) {\r\n        require((_value == 0) || (allowances[msg.sender][_spender] == 0));\r\n\r\n        allowances[msg.sender][_spender] = _value; // Set spender allowance\r\n\r\n        Approval(msg.sender, _spender, _value); // Trigger Approval event\r\n        return true;\r\n    }\r\n\r\n    /**\r\n     *  @dev Burns all the tokens which has not been sold during ICO\r\n     */\r\n    function burn() public {\r\n        if (!burned && now > startTime) {\r\n            uint256 diff = balances[owner].sub(amountReserved); // Get the amount of unsold tokens\r\n\r\n            balances[owner] = amountReserved;\r\n            totalSupply = totalSupply.sub(diff); // Reduce total provision number\r\n\r\n            burned = true;\r\n            Burned(diff); // Trigger Burned event\r\n        }\r\n    }\r\n\r\n    /**\r\n     *  @dev Sets Corwdsale contract address & allowance\r\n     *  @param _crowdsaleAddress address The address of the Crowdsale contract\r\n     */\r\n    function setCrowdsale(address _crowdsaleAddress) public {\r\n        require(msg.sender == owner);\r\n        require(crowdsale == address(0));\r\n\r\n        crowdsale = _crowdsaleAddress;\r\n        assert(_approve(crowdsale, amountForSale));\r\n    }\r\n}\r\n\r\n    /**\r\n    *            CITY token by www.SmartCityCoin.io\r\n    * \r\n    *          .ossssss:                      `+sssss`      \r\n    *         ` +ssssss+` `.://++++++//:.`  .osssss+       \r\n    *            /sssssssssssssssssssssssss+ssssso`        \r\n    *             -sssssssssssssssssssssssssssss+`         \r\n    *            .+sssssssss+:--....--:/ossssssss+.        \r\n    *          `/ssssssssssso`         .sssssssssss/`      \r\n    *         .ossssss+sssssss-       :sssss+:ossssso.     \r\n    *        `ossssso. .ossssss:    `/sssss/  `/ssssss.    \r\n    *        ossssso`   `+ssssss+` .osssss:     /ssssss`   \r\n    *       :ssssss`      /sssssso:ssssso.       +o+/:-`   \r\n    *       osssss+        -sssssssssss+`                  \r\n    *       ssssss:         .ossssssss/                    \r\n    *       osssss/          `+ssssss-                     \r\n    *       /ssssso           :ssssss                      \r\n    *       .ssssss-          :ssssss                      \r\n    *        :ssssss-         :ssssss          `           \r\n    *         /ssssss/`       :ssssss        `/s+:`        \r\n    *          :sssssso:.     :ssssss      ./ssssss+`      \r\n    *           .+ssssssso/-.`:ssssss``.-/osssssss+.       \r\n    *             .+ssssssssssssssssssssssssssss+-         \r\n    *               `:+ssssssssssssssssssssss+:`           \r\n    *                  `.:+osssssssssssso+:.`              \r\n    *                        `/ssssss.`                    \r\n    *                         :ssssss                      \r\n    */",
  "sourcePath": "D:\\dev\\solidity\\smart-city-enterprise_2\\contracts\\SmartCityToken.sol",
  "compiler": {
    "name": "solc",
    "version": "0.4.19+commit.c4cbbb05.Emscripten.clang"
  },
  "schemaVersion": "2.0.0",
  "updatedAt": "2018-07-09T16:57:51.486Z"
}