{
  "contractName": "SmartCityCrowdsale",
  "abi": [
    {
      "constant": true,
      "inputs": [],
      "name": "tokensForSale",
      "outputs": [
        {
          "name": "",
          "type": "uint256"
        }
      ],
      "payable": false,
      "stateMutability": "view",
      "type": "function"
    },
    {
      "constant": true,
      "inputs": [],
      "name": "crowdsaleEnded",
      "outputs": [
        {
          "name": "",
          "type": "bool"
        }
      ],
      "payable": false,
      "stateMutability": "view",
      "type": "function"
    },
    {
      "constant": true,
      "inputs": [
        {
          "name": "",
          "type": "address"
        }
      ],
      "name": "balances",
      "outputs": [
        {
          "name": "",
          "type": "uint256"
        }
      ],
      "payable": false,
      "stateMutability": "view",
      "type": "function"
    },
    {
      "constant": true,
      "inputs": [],
      "name": "tokensSoldTotal",
      "outputs": [
        {
          "name": "",
          "type": "uint256"
        }
      ],
      "payable": false,
      "stateMutability": "view",
      "type": "function"
    },
    {
      "constant": true,
      "inputs": [],
      "name": "paused",
      "outputs": [
        {
          "name": "",
          "type": "bool"
        }
      ],
      "payable": false,
      "stateMutability": "view",
      "type": "function"
    },
    {
      "constant": true,
      "inputs": [],
      "name": "usedPositions",
      "outputs": [
        {
          "name": "",
          "type": "uint256"
        }
      ],
      "payable": false,
      "stateMutability": "view",
      "type": "function"
    },
    {
      "constant": true,
      "inputs": [],
      "name": "startTime",
      "outputs": [
        {
          "name": "",
          "type": "uint256"
        }
      ],
      "payable": false,
      "stateMutability": "view",
      "type": "function"
    },
    {
      "constant": true,
      "inputs": [
        {
          "name": "",
          "type": "address"
        }
      ],
      "name": "purchases",
      "outputs": [
        {
          "name": "",
          "type": "uint256"
        }
      ],
      "payable": false,
      "stateMutability": "view",
      "type": "function"
    },
    {
      "constant": true,
      "inputs": [],
      "name": "owner",
      "outputs": [
        {
          "name": "",
          "type": "address"
        }
      ],
      "payable": false,
      "stateMutability": "view",
      "type": "function"
    },
    {
      "constant": true,
      "inputs": [],
      "name": "raisedEth",
      "outputs": [
        {
          "name": "",
          "type": "uint256"
        }
      ],
      "payable": false,
      "stateMutability": "view",
      "type": "function"
    },
    {
      "constant": true,
      "inputs": [],
      "name": "investmentPositions",
      "outputs": [
        {
          "name": "",
          "type": "uint256"
        }
      ],
      "payable": false,
      "stateMutability": "view",
      "type": "function"
    },
    {
      "constant": true,
      "inputs": [],
      "name": "investmentLimit",
      "outputs": [
        {
          "name": "",
          "type": "uint256"
        }
      ],
      "payable": false,
      "stateMutability": "view",
      "type": "function"
    },
    {
      "constant": true,
      "inputs": [],
      "name": "availablePositions",
      "outputs": [
        {
          "name": "",
          "type": "uint256"
        }
      ],
      "payable": false,
      "stateMutability": "view",
      "type": "function"
    },
    {
      "constant": true,
      "inputs": [],
      "name": "positionPrice",
      "outputs": [
        {
          "name": "",
          "type": "uint256"
        }
      ],
      "payable": false,
      "stateMutability": "view",
      "type": "function"
    },
    {
      "constant": true,
      "inputs": [],
      "name": "weiToTokenFactor",
      "outputs": [
        {
          "name": "",
          "type": "uint256"
        }
      ],
      "payable": false,
      "stateMutability": "view",
      "type": "function"
    },
    {
      "constant": true,
      "inputs": [],
      "name": "token",
      "outputs": [
        {
          "name": "",
          "type": "address"
        }
      ],
      "payable": false,
      "stateMutability": "view",
      "type": "function"
    },
    {
      "inputs": [
        {
          "name": "_tokenAddress",
          "type": "address"
        },
        {
          "name": "_owner",
          "type": "address"
        },
        {
          "name": "_walletAddress",
          "type": "address"
        },
        {
          "name": "_start",
          "type": "uint256"
        }
      ],
      "payable": false,
      "stateMutability": "nonpayable",
      "type": "constructor"
    },
    {
      "payable": true,
      "stateMutability": "payable",
      "type": "fallback"
    },
    {
      "anonymous": false,
      "inputs": [
        {
          "indexed": true,
          "name": "_investorAddr",
          "type": "address"
        },
        {
          "indexed": false,
          "name": "_amount",
          "type": "uint256"
        },
        {
          "indexed": false,
          "name": "_amountRaised",
          "type": "uint256"
        }
      ],
      "name": "FundTransfer",
      "type": "event"
    },
    {
      "anonymous": false,
      "inputs": [
        {
          "indexed": true,
          "name": "party",
          "type": "address"
        }
      ],
      "name": "Granted",
      "type": "event"
    },
    {
      "anonymous": false,
      "inputs": [
        {
          "indexed": true,
          "name": "party",
          "type": "address"
        }
      ],
      "name": "Revoked",
      "type": "event"
    },
    {
      "anonymous": false,
      "inputs": [
        {
          "indexed": false,
          "name": "raisedAmount",
          "type": "uint256"
        }
      ],
      "name": "Ended",
      "type": "event"
    },
    {
      "constant": false,
      "inputs": [],
      "name": "invest",
      "outputs": [],
      "payable": true,
      "stateMutability": "payable",
      "type": "function"
    },
    {
      "constant": true,
      "inputs": [
        {
          "name": "_value",
          "type": "uint256"
        }
      ],
      "name": "getPositionsAndTokensCnt",
      "outputs": [
        {
          "name": "positionsCnt",
          "type": "uint256"
        },
        {
          "name": "tokensCnt",
          "type": "uint256"
        }
      ],
      "payable": false,
      "stateMutability": "view",
      "type": "function"
    },
    {
      "constant": true,
      "inputs": [],
      "name": "getMinPurchase",
      "outputs": [
        {
          "name": "minPurchase",
          "type": "uint256"
        }
      ],
      "payable": false,
      "stateMutability": "view",
      "type": "function"
    },
    {
      "constant": false,
      "inputs": [
        {
          "name": "newAvailablePositions",
          "type": "uint256"
        }
      ],
      "name": "setAvailablePositions",
      "outputs": [],
      "payable": false,
      "stateMutability": "nonpayable",
      "type": "function"
    },
    {
      "constant": false,
      "inputs": [
        {
          "name": "newPositionPrice",
          "type": "uint256"
        }
      ],
      "name": "setPositionPrice",
      "outputs": [],
      "payable": false,
      "stateMutability": "nonpayable",
      "type": "function"
    },
    {
      "constant": false,
      "inputs": [
        {
          "name": "_paused",
          "type": "bool"
        }
      ],
      "name": "setPaused",
      "outputs": [],
      "payable": false,
      "stateMutability": "nonpayable",
      "type": "function"
    },
    {
      "constant": false,
      "inputs": [],
      "name": "drain",
      "outputs": [],
      "payable": false,
      "stateMutability": "nonpayable",
      "type": "function"
    },
    {
      "constant": false,
      "inputs": [],
      "name": "endCrowdsale",
      "outputs": [],
      "payable": false,
      "stateMutability": "nonpayable",
      "type": "function"
    },
    {
      "constant": false,
      "inputs": [
        {
          "name": "_party",
          "type": "address"
        }
      ],
      "name": "grant",
      "outputs": [],
      "payable": false,
      "stateMutability": "nonpayable",
      "type": "function"
    },
    {
      "constant": false,
      "inputs": [
        {
          "name": "_party",
          "type": "address"
        }
      ],
      "name": "revoke",
      "outputs": [],
      "payable": false,
      "stateMutability": "nonpayable",
      "type": "function"
    },
    {
      "constant": false,
      "inputs": [
        {
          "name": "_parties",
          "type": "address[]"
        }
      ],
      "name": "massGrant",
      "outputs": [],
      "payable": false,
      "stateMutability": "nonpayable",
      "type": "function"
    },
    {
      "constant": false,
      "inputs": [
        {
          "name": "_parties",
          "type": "address[]"
        }
      ],
      "name": "massRevoke",
      "outputs": [],
      "payable": false,
      "stateMutability": "nonpayable",
      "type": "function"
    },
    {
      "constant": true,
      "inputs": [
        {
          "name": "_party",
          "type": "address"
        }
      ],
      "name": "isWhitelisted",
      "outputs": [
        {
          "name": "",
          "type": "bool"
        }
      ],
      "payable": false,
      "stateMutability": "view",
      "type": "function"
    }
  ],
  "bytecode": "0x606060405260006007556000600860006101000a81548160ff0219169083151502179055506000600860016101000a81548160ff021916908315150217905550674f850ca422fd00006009556000600a556064600b55341561006057600080fd5b604051608080611ae98339810160405280805190602001909190805190602001909190805190602001909190805190602001909190505082600160006101000a81548173ffffffffffffffffffffffffffffffffffffffff021916908373ffffffffffffffffffffffffffffffffffffffff160217905550836000806101000a81548173ffffffffffffffffffffffffffffffffffffffff021916908373ffffffffffffffffffffffffffffffffffffffff16021790555081600c60006101000a81548173ffffffffffffffffffffffffffffffffffffffff021916908373ffffffffffffffffffffffffffffffffffffffff1602179055508060068190555050505050611976806101736000396000f300606060405260043610610175576000357c0100000000000000000000000000000000000000000000000000000000900463ffffffff1680630f3d88031461017f57806312aef8c3146101a857806316c38b3c146101d15780632095f2d4146101f6578063222b0d7d1461020b5780632367f35d1461026557806327e235e3146102925780633af32abf146102df5780634081c065146103305780634dcad9271461038a5780635c975abb146103b35780636b65be60146103e057806370284d191461040957806374a8f1031461044257806378e979251461047b578063842a77d3146104a45780638ceaa23f146104f15780638da5cb5b146105145780638e6fdd31146105695780639890220b14610592578063a533daf7146105a7578063a9414cc3146105d0578063ba7efcdd1461060e578063d1c06b2f14610637578063d5812ae114610660578063dc2424fc14610689578063e8b5e51f146106ac578063ec176dee146106b6578063fc0c546a146106df575b61017d610734565b005b341561018a57600080fd5b610192610d4a565b6040518082815260200191505060405180910390f35b34156101b357600080fd5b6101bb610d97565b6040518082815260200191505060405180910390f35b34156101dc57600080fd5b6101f460048080351515906020019091905050610da1565b005b341561020157600080fd5b610209610e1a565b005b341561021657600080fd5b610263600480803590602001908201803590602001908080602002602001604051908101604052809392919081815260200183836020028082843782019150505050505091905050610f75565b005b341561027057600080fd5b6102786110c0565b604051808215151515815260200191505060405180910390f35b341561029d57600080fd5b6102c9600480803573ffffffffffffffffffffffffffffffffffffffff169060200190919050506110d3565b6040518082815260200191505060405180910390f35b34156102ea57600080fd5b610316600480803573ffffffffffffffffffffffffffffffffffffffff169060200190919050506110eb565b604051808215151515815260200191505060405180910390f35b341561033b57600080fd5b610388600480803590602001908201803590602001908080602002602001604051908101604052809392919081815260200183836020028082843782019150505050505091905050611141565b005b341561039557600080fd5b61039d61128c565b6040518082815260200191505060405180910390f35b34156103be57600080fd5b6103c6611292565b604051808215151515815260200191505060405180910390f35b34156103eb57600080fd5b6103f36112a5565b6040518082815260200191505060405180910390f35b341561041457600080fd5b610440600480803573ffffffffffffffffffffffffffffffffffffffff169060200190919050506112ab565b005b341561044d57600080fd5b610479600480803573ffffffffffffffffffffffffffffffffffffffff16906020019091905050611400565b005b341561048657600080fd5b61048e611554565b6040518082815260200191505060405180910390f35b34156104af57600080fd5b6104db600480803573ffffffffffffffffffffffffffffffffffffffff1690602001909190505061155a565b6040518082815260200191505060405180910390f35b34156104fc57600080fd5b6105126004808035906020019091905050611572565b005b341561051f57600080fd5b6105276115fd565b604051808273ffffffffffffffffffffffffffffffffffffffff1673ffffffffffffffffffffffffffffffffffffffff16815260200191505060405180910390f35b341561057457600080fd5b61057c611623565b6040518082815260200191505060405180910390f35b341561059d57600080fd5b6105a5611629565b005b34156105b257600080fd5b6105ba611700565b6040518082815260200191505060405180910390f35b34156105db57600080fd5b6105f16004808035906020019091905050611706565b604051808381526020018281526020019250505060405180910390f35b341561061957600080fd5b610621611803565b6040518082815260200191505060405180910390f35b341561064257600080fd5b61064a61180d565b6040518082815260200191505060405180910390f35b341561066b57600080fd5b610673611813565b6040518082815260200191505060405180910390f35b341561069457600080fd5b6106aa6004808035906020019091905050611819565b005b6106b4610734565b005b34156106c157600080fd5b6106c961188e565b6040518082815260200191505060405180910390f35b34156106ea57600080fd5b6106f2611898565b604051808273ffffffffffffffffffffffffffffffffffffffff1673ffffffffffffffffffffffffffffffffffffffff16815260200191505060405180910390f35b60008060008033600260008273ffffffffffffffffffffffffffffffffffffffff1673ffffffffffffffffffffffffffffffffffffffff16815260200190815260200160002060009054906101000a900460ff16151561079357600080fd5b6000600b541115156107a457600080fd5b60065442101580156107c35750600860009054906101000a900460ff16155b80156107dc5750600860019054906101000a900460ff16155b15156107e757600080fd5b3394503493506107f684611706565b9250925060008311801561080c5750600b548311155b80156108185750600082115b151561082357600080fd5b65109c076a38bc61087c83600460008973ffffffffffffffffffffffffffffffffffffffff1673ffffffffffffffffffffffffffffffffffffffff168152602001908152602001600020546118bd90919063ffffffff16565b1115151561088957600080fd5b65957c42bbfea06108a5836007546118bd90919063ffffffff16565b111515156108b257600080fd5b600c60009054906101000a900473ffffffffffffffffffffffffffffffffffffffff1673ffffffffffffffffffffffffffffffffffffffff166108fc859081150290604051600060405180830381858888f19350505050151561091457600080fd5b61096684600360008873ffffffffffffffffffffffffffffffffffffffff1673ffffffffffffffffffffffffffffffffffffffff168152602001908152602001600020546118bd90919063ffffffff16565b600360008773ffffffffffffffffffffffffffffffffffffffff1673ffffffffffffffffffffffffffffffffffffffff168152602001908152602001600020819055506109fb82600460008873ffffffffffffffffffffffffffffffffffffffff1673ffffffffffffffffffffffffffffffffffffffff168152602001908152602001600020546118bd90919063ffffffff16565b600460008773ffffffffffffffffffffffffffffffffffffffff1673ffffffffffffffffffffffffffffffffffffffff16815260200190815260200160002081905550610a53846005546118bd90919063ffffffff16565b600581905550610a6e83600b546118db90919063ffffffff16565b600b81905550610a8983600a546118bd90919063ffffffff16565b600a81905550610aa4826007546118bd90919063ffffffff16565b6007819055506000809054906101000a900473ffffffffffffffffffffffffffffffffffffffff1673ffffffffffffffffffffffffffffffffffffffff166323b872dd600160009054906101000a900473ffffffffffffffffffffffffffffffffffffffff1687856000604051602001526040518463ffffffff167c0100000000000000000000000000000000000000000000000000000000028152600401808473ffffffffffffffffffffffffffffffffffffffff1673ffffffffffffffffffffffffffffffffffffffff1681526020018373ffffffffffffffffffffffffffffffffffffffff1673ffffffffffffffffffffffffffffffffffffffff1681526020018281526020019350505050602060405180830381600087803b1515610bcc57600080fd5b6102c65a03f11515610bdd57600080fd5b505050604051805190501515610bf257600080fd5b8473ffffffffffffffffffffffffffffffffffffffff167f4868204ba256324465262345d316654988b849a14e86d2216ef1e0956384199185600554604051808381526020018281526020019250505060405180910390a2611112600a541415610d43576000809054906101000a900473ffffffffffffffffffffffffffffffffffffffff1673ffffffffffffffffffffffffffffffffffffffff166344df8e706040518163ffffffff167c0100000000000000000000000000000000000000000000000000000000028152600401600060405180830381600087803b1515610cda57600080fd5b6102c65a03f11515610ceb57600080fd5b5050506001600860006101000a81548160ff0219169083151502179055507f601095663bda08ac0f932087ef2eb08e42e4bcd1927f3a8d9500f6ad2c5aef906005546040518082815260200191505060405180910390a15b5050505050565b60006006544210158015610d6b5750600860009054906101000a900460ff16155b8015610d845750600860019054906101000a900460ff16155b1515610d8f57600080fd5b600954905090565b65957c42bbfea081565b600160009054906101000a900473ffffffffffffffffffffffffffffffffffffffff1673ffffffffffffffffffffffffffffffffffffffff163373ffffffffffffffffffffffffffffffffffffffff16141515610dfd57600080fd5b80600860016101000a81548160ff02191690831515021790555050565b600160009054906101000a900473ffffffffffffffffffffffffffffffffffffffff1673ffffffffffffffffffffffffffffffffffffffff163373ffffffffffffffffffffffffffffffffffffffff16141515610e7657600080fd5b611112600a819055506000600b819055506000809054906101000a900473ffffffffffffffffffffffffffffffffffffffff1673ffffffffffffffffffffffffffffffffffffffff166344df8e706040518163ffffffff167c0100000000000000000000000000000000000000000000000000000000028152600401600060405180830381600087803b1515610f0b57600080fd5b6102c65a03f11515610f1c57600080fd5b5050506001600860006101000a81548160ff0219169083151502179055507f601095663bda08ac0f932087ef2eb08e42e4bcd1927f3a8d9500f6ad2c5aef906005546040518082815260200191505060405180910390a1565b600080600160009054906101000a900473ffffffffffffffffffffffffffffffffffffffff1673ffffffffffffffffffffffffffffffffffffffff163373ffffffffffffffffffffffffffffffffffffffff16141515610fd457600080fd5b82519150600090505b818110156110bb576000600260008584815181101515610ff957fe5b9060200190602002015173ffffffffffffffffffffffffffffffffffffffff1673ffffffffffffffffffffffffffffffffffffffff16815260200190815260200160002060006101000a81548160ff021916908315150217905550828181518110151561106257fe5b9060200190602002015173ffffffffffffffffffffffffffffffffffffffff167fb6fa8b8bd5eab60f292eca876e3ef90722275b785309d84b1de113ce0b8c4e7460405160405180910390a28080600101915050610fdd565b505050565b600860009054906101000a900460ff1681565b60036020528060005260406000206000915090505481565b6000600260008373ffffffffffffffffffffffffffffffffffffffff1673ffffffffffffffffffffffffffffffffffffffff16815260200190815260200160002060009054906101000a900460ff169050919050565b600080600160009054906101000a900473ffffffffffffffffffffffffffffffffffffffff1673ffffffffffffffffffffffffffffffffffffffff163373ffffffffffffffffffffffffffffffffffffffff161415156111a057600080fd5b82519150600090505b818110156112875760016002600085848151811015156111c557fe5b9060200190602002015173ffffffffffffffffffffffffffffffffffffffff1673ffffffffffffffffffffffffffffffffffffffff16815260200190815260200160002060006101000a81548160ff021916908315150217905550828181518110151561122e57fe5b9060200190602002015173ffffffffffffffffffffffffffffffffffffffff167f07fbfa1ea88900f6f3310f4b2f87c8f523243d3ad73b76ea750044dfa98341b760405160405180910390a280806001019150506111a9565b505050565b60075481565b600860019054906101000a900460ff1681565b600a5481565b600160009054906101000a900473ffffffffffffffffffffffffffffffffffffffff1673ffffffffffffffffffffffffffffffffffffffff163373ffffffffffffffffffffffffffffffffffffffff1614151561130757600080fd5b80600260008273ffffffffffffffffffffffffffffffffffffffff1673ffffffffffffffffffffffffffffffffffffffff16815260200190815260200160002060009054906101000a900460ff1615151561136157600080fd5b6001600260008473ffffffffffffffffffffffffffffffffffffffff1673ffffffffffffffffffffffffffffffffffffffff16815260200190815260200160002060006101000a81548160ff0219169083151502179055508173ffffffffffffffffffffffffffffffffffffffff167f07fbfa1ea88900f6f3310f4b2f87c8f523243d3ad73b76ea750044dfa98341b760405160405180910390a25050565b600160009054906101000a900473ffffffffffffffffffffffffffffffffffffffff1673ffffffffffffffffffffffffffffffffffffffff163373ffffffffffffffffffffffffffffffffffffffff1614151561145c57600080fd5b80600260008273ffffffffffffffffffffffffffffffffffffffff1673ffffffffffffffffffffffffffffffffffffffff16815260200190815260200160002060009054906101000a900460ff1615156114b557600080fd5b6000600260008473ffffffffffffffffffffffffffffffffffffffff1673ffffffffffffffffffffffffffffffffffffffff16815260200190815260200160002060006101000a81548160ff0219169083151502179055508173ffffffffffffffffffffffffffffffffffffffff167fb6fa8b8bd5eab60f292eca876e3ef90722275b785309d84b1de113ce0b8c4e7460405160405180910390a25050565b60065481565b60046020528060005260406000206000915090505481565b600160009054906101000a900473ffffffffffffffffffffffffffffffffffffffff1673ffffffffffffffffffffffffffffffffffffffff163373ffffffffffffffffffffffffffffffffffffffff161415156115ce57600080fd5b6115e5600a546111126118db90919063ffffffff16565b81111515156115f357600080fd5b80600b8190555050565b600160009054906101000a900473ffffffffffffffffffffffffffffffffffffffff1681565b60055481565b600160009054906101000a900473ffffffffffffffffffffffffffffffffffffffff1673ffffffffffffffffffffffffffffffffffffffff163373ffffffffffffffffffffffffffffffffffffffff1614151561168557600080fd5b600c60009054906101000a900473ffffffffffffffffffffffffffffffffffffffff1673ffffffffffffffffffffffffffffffffffffffff166108fc3073ffffffffffffffffffffffffffffffffffffffff16319081150290604051600060405180830381858888f1935050505015156116fe57600080fd5b565b61111281565b600080600080600654421015801561172b5750600860009054906101000a900460ff16155b80156117445750600860019054906101000a900460ff16155b151561174f57600080fd5b60006009548681151561175e57fe5b061415806117705750611112600a5410155b1561178757600080819150809050935093506117fc565b61179c600954866118f490919063ffffffff16565b91506117f36117b8600a546111126118db90919063ffffffff16565b6117e5846117d760075465957c42bbfea06118db90919063ffffffff16565b61190f90919063ffffffff16565b6118f490919063ffffffff16565b90508181935093505b5050915091565b65109c076a38bc81565b600b5481565b60095481565b600160009054906101000a900473ffffffffffffffffffffffffffffffffffffffff1673ffffffffffffffffffffffffffffffffffffffff163373ffffffffffffffffffffffffffffffffffffffff1614151561187557600080fd5b60008111151561188457600080fd5b8060098190555050565b6509184e72a00081565b6000809054906101000a900473ffffffffffffffffffffffffffffffffffffffff1681565b60008082840190508381101515156118d157fe5b8091505092915050565b60008282111515156118e957fe5b818303905092915050565b600080828481151561190257fe5b0490508091505092915050565b60008060008414156119245760009150611943565b828402905082848281151561193557fe5b0414151561193f57fe5b8091505b50929150505600a165627a7a72305820630bae9a9addff72235a7b8401d4b4d24e0648f7e8caacbd8ff5872b0e4c4b0d0029",
  "source": "pragma solidity ^0.4.18;\n\n/**\n *  @title Smart City Crowdsale contract http://www.smartcitycoin.io\n *  @dev Investors allowed to withdraw their funds if minimum funding goal is not reached.\n */\n\nimport \"./SafeMath.sol\";\n\n\ncontract SmartCityToken {\n    function transferFrom(address _from, address _to, uint256 _value) public returns(bool success) {}\n    \n    function setTokenStart(uint256 _newStartTime) public {}\n\n    function burn() public {}\n}\n\ncontract SmartCityCrowdsale {\n    using SafeMath for uint256;\n\n\t/// state\n    SmartCityToken public token; // Token Contract\n\t\n\taddress public owner; // Owner address\n\n\tmapping (address => bool) whitelist; // useers whithelist\n\n    mapping(address => uint256) public balances; // the array of users along with amounts invested\n\t\n\tmapping(address => uint256) public purchases; // the array of users and tokens purchased\n\n    uint256 public raisedEth; // Amount of Ether raised\n\n    uint256 public startTime; // Crowdale start time\n\n    uint256 public tokensSoldTotal = 0; // Sold Tolkens counter\n\n    bool public crowdsaleEnded = false; // if the Campaign is over\n\t\n\tbool public paused = false; // if the Campaign is paused\n\n    uint256 public positionPrice = 5730 finney; // Initially 1 investement position costs 5.73 ETH, might be changed by owner afterwards\n\t\n\tuint256 public usedPositions = 0; // Initial number of used investment positions\n\t\n\tuint256 public availablePositions = 100; // Initial number of open investment positions\n\n    address walletAddress; // address of the wallet contract storing the funds\n\n\t/// constants\n    uint256 constant public tokensForSale = 164360928100000; // Total amount of tokens allocated for the Crowdsale\n\n\tuint256 constant public weiToTokenFactor = 10000000000000;\n\n\tuint256 constant public investmentPositions = 4370; // Total number of investment positions\n\n    uint256 constant public investmentLimit = 18262325344444; // the maximum amount of Ether an address is allowed to invest - limited to 1/9 of tokens allocated for sale\n\n\t/// events\n    event FundTransfer(address indexed _investorAddr, uint256 _amount, uint256 _amountRaised); // fired on transfering funds from investors\n\t\n\tevent Granted(address indexed party); // user is added to the whitelist\n\t\n\tevent Revoked(address indexed party); // user is removed from the whitelist\n\t\n\tevent Ended(uint256 raisedAmount); // Crowdsale is ended\n\n\t/// modifiers\n\tmodifier onlyWhenActive() {\n\t\trequire(now >= startTime && !crowdsaleEnded && !paused);\n\t\t_;\n\t}\n\t\n\tmodifier whenPositionsAvailable() {\n\t\trequire(availablePositions > 0);\n\t\t_;\n\t}\n\n\tmodifier onlyWhitelisted(address party) {\n\t\trequire(whitelist[party]);\n\t\t_; \n\t}\n\t\n\tmodifier onlyNotOnList(address party) {\n\t\trequire(!whitelist[party]);\n\t\t_;\n\t}\n\n\tmodifier onlyOwner() {\n\t\trequire(msg.sender == owner);\n\t\t_;\n\t}\n\n    /**\n     *  @dev Crowdsale Contract initialization\n     *  @param _owner address Token owner address\n     *  @param _tokenAddress address Crowdsale end time\n     *  @param _walletAddress address Beneficiary address where the funds are collected\n     *  @param _start uint256 Crowdsale Start Time\n     */\n    function SmartCityCrowdsale (\n            address _tokenAddress,\n            address _owner,\n            address _walletAddress,\n            uint256 _start) public {\n\n        owner = _owner;\n        token = SmartCityToken(_tokenAddress);\n        walletAddress = _walletAddress;\n\n        startTime = _start; // Crowdsale Start Time\n    }\n\n    /**\n     *  @dev Investment can be done just by sending Ether to Crowdsale Contract\n     */\n    function() public payable {\n        invest();\n    }\n\n    /**\n     *  @dev Make an investment\n     */\n    function invest() public payable\n\t\t\t\tonlyWhitelisted(msg.sender)\n\t\t\t\twhenPositionsAvailable\n\t\t\t\tonlyWhenActive\n\t{\n\t\taddress _receiver = msg.sender;\n        uint256 amount = msg.value; // Transaction value in Wei\n\n        var (positionsCnt, tokensCnt) = getPositionsAndTokensCnt(amount); \n\n        require(positionsCnt > 0 && positionsCnt <= availablePositions && tokensCnt > 0);\n\t\t\n        //require(balances[_receiver].add(amount) <= investmentLimit); // Check the investment limit is not exceeded\n\t\trequire(purchases[_receiver].add(tokensCnt) <= investmentLimit); // Check the investment limit is not exceeded\n\n        require(tokensSoldTotal.add(tokensCnt) <= tokensForSale);\n\n        walletAddress.transfer(amount); // Send funds to the Wallet\n\t\t\n        balances[_receiver] = balances[_receiver].add(amount); // Add the amount invested to Investor's ballance\n\t\tpurchases[_receiver] = purchases[_receiver].add(tokensCnt); // Add tokens to Investor's purchases\n        raisedEth = raisedEth.add(amount); // Increase raised funds counter\n\t\tavailablePositions = availablePositions.sub(positionsCnt);\n\t\tusedPositions = usedPositions.add(positionsCnt);\n        tokensSoldTotal = tokensSoldTotal.add(tokensCnt); // Increase sold CITY counter\n\n        require(token.transferFrom(owner, _receiver, tokensCnt)); // Transfer CITY purchased to Investor\n\n        FundTransfer(_receiver, amount, raisedEth);\n\t\t\n\t\tif (usedPositions == investmentPositions) { // Sold Out\n\t\t\ttoken.burn();\n\t\t\tcrowdsaleEnded = true; // mark Crowdsale ended\n\t\t\t\n\t\t\tEnded(raisedEth);\n\t\t}\n    }\n    \n    /**\n     *  @dev Calculate the amount of Tokens purchased based on the value sent and current Token price\n     *  @param _value uint256 Amount invested\n     */\n    function getPositionsAndTokensCnt(uint256 _value) public constant onlyWhenActive returns(uint256 positionsCnt, uint256 tokensCnt) {\n\t\t\tif (_value % positionPrice != 0 || usedPositions >= investmentPositions) {\n\t\t\t\treturn(0, 0);\n\t\t\t}\n\t\t\telse {\n\t\t\t\tuint256 purchasedPositions = _value.div(positionPrice);\n\t\t\t\tuint256 purchasedTokens = ((tokensForSale.sub(tokensSoldTotal)).mul(purchasedPositions)).div(investmentPositions.sub(usedPositions));\n\t\t\t\treturn(purchasedPositions, purchasedTokens);\n\t\t\t}\n    }\n\n\tfunction getMinPurchase() public constant onlyWhenActive returns(uint256 minPurchase) {\n\t\treturn positionPrice;\n\t}\n\t\n\t/// Owner functions\n\t\n    /**\n     *  @dev To increace/reduce number of Investment Positions released for sale\n     */\n    function setAvailablePositions(uint256 newAvailablePositions) public onlyOwner {\n        require(newAvailablePositions <= investmentPositions.sub(usedPositions));\n\t\tavailablePositions = newAvailablePositions;\n    }\n\t\n\t/**\n     *  @dev Allows Investment Position price changes\n     */\n    function setPositionPrice(uint256 newPositionPrice) public onlyOwner {\n        require(newPositionPrice > 0);\n\t\tpositionPrice = newPositionPrice;\n    }\n\t\n\t /**\n     *  @dev Emergency function to pause Crowdsale.\n     */\n    function setPaused(bool _paused) public onlyOwner { paused = _paused; }\n\n\t/**\n    *   @dev Emergency function to drain the contract of any funds.\n    */\n\tfunction drain() public onlyOwner { walletAddress.transfer(this.balance); }\n\t\n\t/**\n    *   @dev Function to manually finalize Crowdsale.\n    */\n\tfunction endCrowdsale() public onlyOwner {\n\t\tusedPositions = investmentPositions;\n\t\tavailablePositions = 0;\n\t\ttoken.burn(); // burn all unsold tokens\n\t\tcrowdsaleEnded = true; // mark Crowdsale ended\n\t\t\n\t\tEnded(raisedEth);\n\t}\n\n\t/// Whitelist functions\n\tfunction grant(address _party) public onlyOwner onlyNotOnList(_party)\n\t{\n\t\twhitelist[_party] = true;\n\t\tGranted(_party);\n\t}\n\n\tfunction revoke(address _party) public onlyOwner onlyWhitelisted(_party)\n\t{\n\t\twhitelist[_party] = false;\n\t\tRevoked(_party);\n\t}\n\t\n\tfunction massGrant(address[] _parties) public onlyOwner\n\t{\n\t\tuint len = _parties.length;\n\t\t\n\t\tfor (uint i = 0; i < len; i++) {\n\t\t\twhitelist[_parties[i]] = true;\n\t\t\tGranted(_parties[i]);\n\t\t}\n\t}\n\n\tfunction massRevoke(address[] _parties) public onlyOwner\n\t{\n\t\tuint len = _parties.length;\n\t\t\n\t\tfor (uint i = 0; i < len; i++) {\n\t\t\twhitelist[_parties[i]] = false;\n\t\t\tRevoked(_parties[i]);\n\t\t}\n\t}\n\n\tfunction isWhitelisted(address _party) public constant returns (bool) {\n\t\treturn whitelist[_party];\n\t}\n}\n\n\t\n    /**\n    *            CITY token by www.SmartCityCoin.io\n    * \n    *          .ossssss:                      `+sssss`      \n    *         ` +ssssss+` `.://++++++//:.`  .osssss+       \n    *            /sssssssssssssssssssssssss+ssssso`        \n    *             -sssssssssssssssssssssssssssss+`         \n    *            .+sssssssss+:--....--:/ossssssss+.        \n    *          `/ssssssssssso`         .sssssssssss/`      \n    *         .ossssss+sssssss-       :sssss+:ossssso.     \n    *        `ossssso. .ossssss:    `/sssss/  `/ssssss.    \n    *        ossssso`   `+ssssss+` .osssss:     /ssssss`   \n    *       :ssssss`      /sssssso:ssssso.       +o+/:-`   \n    *       osssss+        -sssssssssss+`                  \n    *       ssssss:         .ossssssss/                    \n    *       osssss/          `+ssssss-                     \n    *       /ssssso           :ssssss                      \n    *       .ssssss-          :ssssss                      \n    *        :ssssss-         :ssssss          `           \n    *         /ssssss/`       :ssssss        `/s+:`        \n    *          :sssssso:.     :ssssss      ./ssssss+`      \n    *           .+ssssssso/-.`:ssssss``.-/osssssss+.       \n    *             .+ssssssssssssssssssssssssssss+-         \n    *               `:+ssssssssssssssssssssss+:`           \n    *                  `.:+osssssssssssso+:.`              \n    *                        `/ssssss.`                    \n    *                         :ssssss                      \n    */",
  "sourcePath": "D:\\dev\\solidity\\smart-city-enterprise_2\\contracts\\SmartCityCrowdsale.sol",
  "compiler": {
    "name": "solc",
    "version": "0.4.19+commit.c4cbbb05.Emscripten.clang"
  },
  "schemaVersion": "2.0.0",
  "updatedAt": "2018-07-09T16:57:51.470Z"
}